{
  "src/Multisig.sol": {
    "Multisig": {
      "abi": [
        {
          "inputs": [
            {
              "internalType": "address[]",
              "name": "_signers",
              "type": "address[]"
            },
            {
              "internalType": "uint256",
              "name": "_threshold",
              "type": "uint256"
            }
          ],
          "stateMutability": "nonpayable",
          "type": "constructor"
        },
        {
          "inputs": [],
          "name": "AddressNotRequired",
          "type": "error"
        },
        {
          "inputs": [],
          "name": "AlreadyConfirmed",
          "type": "error"
        },
        {
          "inputs": [
            {
              "internalType": "address",
              "name": "account",
              "type": "address"
            }
          ],
          "name": "AlreadySigner",
          "type": "error"
        },
        {
          "inputs": [],
          "name": "EmptyTransaction",
          "type": "error"
        },
        {
          "inputs": [],
          "name": "ExecutionFailed",
          "type": "error"
        },
        {
          "inputs": [],
          "name": "InputNotRequired",
          "type": "error"
        },
        {
          "inputs": [],
          "name": "InsufficientFunds",
          "type": "error"
        },
        {
          "inputs": [],
          "name": "InvalidAddress",
          "type": "error"
        },
        {
          "inputs": [],
          "name": "InvalidThreshold",
          "type": "error"
        },
        {
          "inputs": [],
          "name": "InvalidTransactionType",
          "type": "error"
        },
        {
          "inputs": [],
          "name": "NotConfirmed",
          "type": "error"
        },
        {
          "inputs": [],
          "name": "NotEnoughSigners",
          "type": "error"
        },
        {
          "inputs": [],
          "name": "NotProposer",
          "type": "error"
        },
        {
          "inputs": [
            {
              "internalType": "address",
              "name": "account",
              "type": "address"
            }
          ],
          "name": "NotSigner",
          "type": "error"
        },
        {
          "inputs": [],
          "name": "ReentrancyGuardReentrantCall",
          "type": "error"
        },
        {
          "inputs": [],
          "name": "RemovalWouldBrickWallet",
          "type": "error"
        },
        {
          "inputs": [
            {
              "internalType": "address",
              "name": "token",
              "type": "address"
            }
          ],
          "name": "SafeERC20FailedOperation",
          "type": "error"
        },
        {
          "inputs": [],
          "name": "ThresholdNotMet",
          "type": "error"
        },
        {
          "inputs": [],
          "name": "TokenNotRequired",
          "type": "error"
        },
        {
          "inputs": [],
          "name": "TxNonExistent",
          "type": "error"
        },
        {
          "inputs": [],
          "name": "TxNotPending",
          "type": "error"
        },
        {
          "inputs": [],
          "name": "UnknownTokenAddress",
          "type": "error"
        },
        {
          "anonymous": false,
          "inputs": [
            {
              "indexed": true,
              "internalType": "uint256",
              "name": "txId",
              "type": "uint256"
            }
          ],
          "name": "Cancelled",
          "type": "event"
        },
        {
          "anonymous": false,
          "inputs": [
            {
              "indexed": true,
              "internalType": "uint256",
              "name": "txId",
              "type": "uint256"
            },
            {
              "indexed": true,
              "internalType": "address",
              "name": "signer",
              "type": "address"
            }
          ],
          "name": "Confirmed",
          "type": "event"
        },
        {
          "anonymous": false,
          "inputs": [
            {
              "indexed": true,
              "internalType": "address",
              "name": "sender",
              "type": "address"
            },
            {
              "indexed": false,
              "internalType": "uint256",
              "name": "amount",
              "type": "uint256"
            }
          ],
          "name": "Deposit",
          "type": "event"
        },
        {
          "anonymous": false,
          "inputs": [
            {
              "indexed": true,
              "internalType": "uint256",
              "name": "txId",
              "type": "uint256"
            }
          ],
          "name": "Executed",
          "type": "event"
        },
        {
          "anonymous": false,
          "inputs": [
            {
              "indexed": true,
              "internalType": "uint256",
              "name": "txId",
              "type": "uint256"
            },
            {
              "indexed": true,
              "internalType": "address",
              "name": "caller",
              "type": "address"
            },
            {
              "indexed": false,
              "internalType": "address",
              "name": "receiver",
              "type": "address"
            },
            {
              "indexed": false,
              "internalType": "uint256",
              "name": "amount",
              "type": "uint256"
            }
          ],
          "name": "Submitted",
          "type": "event"
        },
        {
          "inputs": [
            {
              "internalType": "uint256",
              "name": "_txId",
              "type": "uint256"
            }
          ],
          "name": "cancel",
          "outputs": [],
          "stateMutability": "nonpayable",
          "type": "function"
        },
        {
          "inputs": [
            {
              "internalType": "uint256",
              "name": "_txId",
              "type": "uint256"
            }
          ],
          "name": "confirm",
          "outputs": [],
          "stateMutability": "nonpayable",
          "type": "function"
        },
        {
          "inputs": [
            {
              "internalType": "uint256",
              "name": "_txId",
              "type": "uint256"
            }
          ],
          "name": "execute",
          "outputs": [],
          "stateMutability": "nonpayable",
          "type": "function"
        },
        {
          "inputs": [
            {
              "internalType": "uint256",
              "name": "",
              "type": "uint256"
            },
            {
              "internalType": "address",
              "name": "",
              "type": "address"
            }
          ],
          "name": "hasConfirmed",
          "outputs": [
            {
              "internalType": "bool",
              "name": "",
              "type": "bool"
            }
          ],
          "stateMutability": "view",
          "type": "function"
        },
        {
          "inputs": [
            {
              "internalType": "address",
              "name": "",
              "type": "address"
            }
          ],
          "name": "isSigner",
          "outputs": [
            {
              "internalType": "bool",
              "name": "",
              "type": "bool"
            }
          ],
          "stateMutability": "view",
          "type": "function"
        },
        {
          "inputs": [
            {
              "internalType": "uint256",
              "name": "_txId",
              "type": "uint256"
            }
          ],
          "name": "revoke",
          "outputs": [],
          "stateMutability": "nonpayable",
          "type": "function"
        },
        {
          "inputs": [
            {
              "internalType": "uint256",
              "name": "",
              "type": "uint256"
            }
          ],
          "name": "signers",
          "outputs": [
            {
              "internalType": "address",
              "name": "",
              "type": "address"
            }
          ],
          "stateMutability": "view",
          "type": "function"
        },
        {
          "inputs": [
            {
              "internalType": "address",
              "name": "_to",
              "type": "address"
            },
            {
              "internalType": "address",
              "name": "_token",
              "type": "address"
            },
            {
              "internalType": "uint256",
              "name": "_value",
              "type": "uint256"
            },
            {
              "internalType": "uint8",
              "name": "_typeindex",
              "type": "uint8"
            }
          ],
          "name": "submit",
          "outputs": [],
          "stateMutability": "nonpayable",
          "type": "function"
        },
        {
          "inputs": [],
          "name": "threshold",
          "outputs": [
            {
              "internalType": "uint256",
              "name": "",
              "type": "uint256"
            }
          ],
          "stateMutability": "view",
          "type": "function"
        },
        {
          "inputs": [
            {
              "internalType": "uint256",
              "name": "",
              "type": "uint256"
            }
          ],
          "name": "transactions",
          "outputs": [
            {
              "internalType": "address",
              "name": "to",
              "type": "address"
            },
            {
              "internalType": "address",
              "name": "token",
              "type": "address"
            },
            {
              "internalType": "uint256",
              "name": "value",
              "type": "uint256"
            },
            {
              "internalType": "enum Multisig.TxType",
              "name": "txType",
              "type": "uint8"
            },
            {
              "internalType": "enum Multisig.States",
              "name": "state",
              "type": "uint8"
            },
            {
              "internalType": "address",
              "name": "proposer",
              "type": "address"
            }
          ],
          "stateMutability": "view",
          "type": "function"
        },
        {
          "stateMutability": "payable",
          "type": "receive"
        }
      ],
      "evm": {
        "bytecode": {
          "linkReferences": {},
          "object": "6080604052346102295761105e803803806100198161022d565b9283398101906040818303126102295780516001600160401b03811161022957810182601f82011215610229578051926001600160401b0384116101ac578360051b9160208061006a81860161022d565b80978152019382010191821161022957602001915b81831061020957602084015160017f9b779b17422d0df92223018b32b4d1fa46e071723d6817e2486d003becc55f0055855186600282106101fb576002831015806101f1575b156101e2575f5b8281106100e65783600455604051610e0b90816102538239f35b815181101561019857600581901b8201602001516001600160a01b03169081156101d357815f52600160205260ff60405f2054166101c057815f52600160205260405f20600160ff198254161790555f5491680100000000000000008310156101ac5760018301805f55831015610198575f80527f290decd9548b62a8d60345a988386fc84ba6bc95484008f6362f93160ef3e56390920180546001600160a01b0319169092179091556001016100cc565b634e487b7160e01b5f52603260045260245ffd5b634e487b7160e01b5f52604160045260245ffd5b5063f9315a7760e01b5f5260045260245ffd5b63e6c4247b60e01b5f5260045ffd5b63aabd5a0960e01b5f5260045ffd5b50818311156100c5565b620a628160e51b5f5260045ffd5b82516001600160a01b03811681036102295781526020928301920161007f565b5f80fd5b6040519190601f01601f191682016001600160401b038111838210176101ac5760405256fe60806040526004361015610046575b3615610018575f80fd5b6040513481527fe1fffcc4923d04b559f4d29a8bfc6cda04eb5b0d3c460751c2402c5c5cc9109c60203392a2005b5f3560e01c806308aff93314610d1a5780632079fb9a14610cd957806320c5429b14610c3057806340e58ee514610b8357806342cde4e814610b665780637df73e2714610b295780639ace38c214610a8f578063ba0179b5146109cd578063eaa892281461058b5763fe0d94c10361000e57346105875760203660031901126105875760043560027f9b779b17422d0df92223018b32b4d1fa46e071723d6817e2486d003becc55f0054146105785760027f9b779b17422d0df92223018b32b4d1fa46e071723d6817e2486d003becc55f00556003548110156105695761012c81610db9565b506003810160ff815460081c1660048110156104df5760010361055a575f8054815b818110610502575050600454116104f357805461ff001981166102001790915560ff1660058110156104df578061027357504790600281015480921061026457545f918291829182916001600160a01b03165af13d1561025f573d67ffffffffffffffff811161024b5760405190601f8101601f19908116603f0116820167ffffffffffffffff81118382101761024b5760405281525f60203d92013e5b1561023c575b7fbcf6a68a2f901be4a23a41b53acd7697893a7e34def4e28acba584da75283b675f80a260017f9b779b17422d0df92223018b32b4d1fa46e071723d6817e2486d003becc55f0055005b632b3f6d1160e21b5f5260045ffd5b634e487b7160e01b5f52604160045260245ffd5b6101ec565b63356680b760e01b5f5260045ffd5b6001810361030b57506001810154815460029092015460405163a9059cbb60e01b5f9081526001600160a01b03948516600452602492909252919092169160209060448180865af19060015f51148216156102ea575b604052156102d857505b6101f2565b635274afe760e01b5f5260045260245ffd5b90600181151661030257823b15153d151616906102c9565b503d5f823e3d90fd5b60028103610383575080546001600160a01b039081165f9081526001602081905260408220805460ff19169091179055915491549116600160401b82101561024b5761035f8260016102d394015f55610d8f565b81546001600160a01b0393841660039290921b91821b9390911b1916919091179055565b6003810361049a5750545f54905f19820190828211906001600160a01b03168161047757600454831061048b575f818152600160205260408120805460ff191690555b8481106103d8575b50505050506101f2565b816103e282610d8f565b905460039190911b1c6001600160a01b031614610401576001016103c6565b929350506104775761035f61041861043093610d8f565b905460039190911b1c6001600160a01b031691610d8f565b5f548015610463575f190161044481610d8f565b81549060018060a01b039060031b1b191690555f555f808080806103ce565b634e487b7160e01b5f52603160045260245ffd5b634e487b7160e01b5f52601160045260245ffd5b630bb1092160e21b5f5260045ffd5b6004146104a8575b506101f2565b600201546002811015806104d4575b156104c5576004555f6104a2565b63aabd5a0960e01b5f5260045ffd5b505f548111156104b7565b634e487b7160e01b5f52602160045260245ffd5b6359fa4a9360e01b5f5260045ffd5b855f52600260205260405f2061051782610d8f565b905460039190911b1c6001600160a01b03165f908152602091909152604090205460ff16610548575b60010161014e565b915f1981146104775760010191610540565b63f19faf6f60e01b5f5260045ffd5b63055480c760e41b5f5260045ffd5b633ee5aeb560e01b5f5260045ffd5b5f80fd5b34610587576080366003190112610587576105a4610d79565b6105ac610d63565b60443560643560ff811680910361058757335f52600160205260ff60405f2054161561081057600481116109be5760058110156104df575f9080610863576001600160a01b03851615610854576001600160a01b038416610845578215610836575b600354936040519560c0870187811067ffffffffffffffff82111761024b5760405260018060a01b031695868152602081019160018060a01b03168252604081019285845260608201946104df57845260808101916001835260a0820193338552600160401b88101561024b576001880160035561068b88610db9565b92909261082357925182546001600160a01b03199081166001600160a01b0392831617845593516001840180549095169116179092559051600282015592516003939093019260058110156104df5760ff801985541691161783555160048110156104df5782549151610100600160b01b031990921660089190911b61ff00161760109190911b62010000600160b01b0316179055335f9081526001602052604090205460ff1615610810576003548210156105695760ff600361074e84610db9565b50015460081c1660048110156104df5760010361055a575f82815260026020908152604080832033845290915290205460ff16610801575f828152600260209081526040808320338085529252808320805460ff1916600117905551949184907f6f220d98c15dbd07fdc24781b682ea34f92411fc61b83c761dd927afbe02d3fd9080a3835260208301527fee0dc734eb5e239d4127a856586d5c92cd64f0cf80e1706cd69262b6acfabb3b60403393a3005b635f8a9c0b60e01b5f5260045ffd5b632a6edb2b60e01b5f523360045260245ffd5b634e487b7160e01b5f525f60045260245ffd5b6313064eb160e11b5f5260045ffd5b639a5bab7b60e01b5f5260045ffd5b63e6c4247b60e01b5f5260045ffd5b5f9150600181036108a7576001600160a01b03851615610854576001600160a01b03841615610898578215610836575b61060e565b6378a6b4a560e11b5f5260045ffd5b5f915060028103610916576001600160a01b038516801561085457805f52600160205260ff60405f20541661090457506001600160a01b03841615806108fc575b61060e575b63515065a560e11b5f5260045ffd5b5082156108e8565b63f9315a7760e01b5f5260045260245ffd5b5f915060038103610977576001600160a01b0385165f8181526001602052604090205460ff161561096557506001600160a01b038416158061095d575b156108ed5761060e565b508215610953565b632a6edb2b60e01b5f5260045260245ffd5b5f915060031981016108935782156104c5576001600160a01b03851615806109ad575b610893576303f7d41160e11b5f5260045ffd5b506001600160a01b0384161561099a565b637513b90360e01b5f5260045ffd5b3461058757602036600319011261058757600435335f52600160205260ff60405f20541615610810576003548110156105695760ff6003610a0d83610db9565b50015460081c1660048110156104df5760010361055a575f81815260026020908152604080832033845290915290205460ff16610801575f8181526002602090815260408083203380855292528220805460ff1916600117905591907f6f220d98c15dbd07fdc24781b682ea34f92411fc61b83c761dd927afbe02d3fd9080a3005b346105875760203660031901126105875760043560035481101561058757610ab690610db9565b5060018060a01b0381541660018060a01b0360018301541691600360028201549101549060ff82169060ff8360081c16946040519485526020850152604084015260058110156104df57606083015260048310156104df5760c092608083015260018060a01b039060101c1660a0820152f35b34610587576020366003190112610587576001600160a01b03610b4a610d79565b165f526001602052602060ff60405f2054166040519015158152f35b34610587575f366003190112610587576020600454604051908152f35b3461058757602036600319011261058757600435335f52600160205260ff60405f2054161561081057600354811015610569576003610bc182610db9565b5001805460ff8160081c1660048110156104df5760010361055a5760101c6001600160a01b03163303610c2157805461ff0019166103001790557fc41d93b8bfbf9fd7cf5bfe271fd649ab6a6fec0ea101c23b82a2a28eca2533a95f80a2005b637d1b73b960e01b5f5260045ffd5b3461058757602036600319011261058757600435335f52600160205260ff60405f20541615610810576003548110156105695760ff6003610c7083610db9565b50015460081c1660048110156104df5760010361055a575f81815260026020908152604080832033845290915290205460ff1615610cca575f9081526002602090815260408083203384529091529020805460ff19169055005b637238834d60e11b5f5260045ffd5b34610587576020366003190112610587576004355f5481101561058757610d01602091610d8f565b905460405160039290921b1c6001600160a01b03168152f35b3461058757604036600319011261058757610d33610d63565b6004355f52600260205260405f209060018060a01b03165f52602052602060ff60405f2054166040519015158152f35b602435906001600160a01b038216820361058757565b600435906001600160a01b038216820361058757565b5f54811015610da5575f805260205f2001905f90565b634e487b7160e01b5f52603260045260245ffd5b600354811015610da55760035f5260205f209060021b01905f9056fea26469706673582212205964430c3437e196756279e90058f7a4768602db6096759ec5df4af5d4b6cc8364736f6c634300081a0033",
          "opcodes": "PUSH1 0x80 PUSH1 0x40 MSTORE CALLVALUE PUSH2 0x229 JUMPI PUSH2 0x105E DUP1 CODESIZE SUB DUP1 PUSH2 0x19 DUP2 PUSH2 0x22D JUMP JUMPDEST SWAP3 DUP4 CODECOPY DUP2 ADD SWAP1 PUSH1 0x40 DUP2 DUP4 SUB SLT PUSH2 0x229 JUMPI DUP1 MLOAD PUSH1 0x1 PUSH1 0x1 PUSH1 0x40 SHL SUB DUP2 GT PUSH2 0x229 JUMPI DUP2 ADD DUP3 PUSH1 0x1F DUP3 ADD SLT ISZERO PUSH2 0x229 JUMPI DUP1 MLOAD SWAP3 PUSH1 0x1 PUSH1 0x1 PUSH1 0x40 SHL SUB DUP5 GT PUSH2 0x1AC JUMPI DUP4 PUSH1 0x5 SHL SWAP2 PUSH1 0x20 DUP1 PUSH2 0x6A DUP2 DUP7 ADD PUSH2 0x22D JUMP JUMPDEST DUP1 SWAP8 DUP2 MSTORE ADD SWAP4 DUP3 ADD ADD SWAP2 DUP3 GT PUSH2 0x229 JUMPI PUSH1 0x20 ADD SWAP2 JUMPDEST DUP2 DUP4 LT PUSH2 0x209 JUMPI PUSH1 0x20 DUP5 ADD MLOAD PUSH1 0x1 PUSH32 0x9B779B17422D0DF92223018B32B4D1FA46E071723D6817E2486D003BECC55F00 SSTORE DUP6 MLOAD DUP7 PUSH1 0x2 DUP3 LT PUSH2 0x1FB JUMPI PUSH1 0x2 DUP4 LT ISZERO DUP1 PUSH2 0x1F1 JUMPI JUMPDEST ISZERO PUSH2 0x1E2 JUMPI PUSH0 JUMPDEST DUP3 DUP2 LT PUSH2 0xE6 JUMPI DUP4 PUSH1 0x4 SSTORE PUSH1 0x40 MLOAD PUSH2 0xE0B SWAP1 DUP2 PUSH2 0x253 DUP3 CODECOPY RETURN JUMPDEST DUP2 MLOAD DUP2 LT ISZERO PUSH2 0x198 JUMPI PUSH1 0x5 DUP2 SWAP1 SHL DUP3 ADD PUSH1 0x20 ADD MLOAD PUSH1 0x1 PUSH1 0x1 PUSH1 0xA0 SHL SUB AND SWAP1 DUP2 ISZERO PUSH2 0x1D3 JUMPI DUP2 PUSH0 MSTORE PUSH1 0x1 PUSH1 0x20 MSTORE PUSH1 0xFF PUSH1 0x40 PUSH0 KECCAK256 SLOAD AND PUSH2 0x1C0 JUMPI DUP2 PUSH0 MSTORE PUSH1 0x1 PUSH1 0x20 MSTORE PUSH1 0x40 PUSH0 KECCAK256 PUSH1 0x1 PUSH1 0xFF NOT DUP3 SLOAD AND OR SWAP1 SSTORE PUSH0 SLOAD SWAP2 PUSH9 0x10000000000000000 DUP4 LT ISZERO PUSH2 0x1AC JUMPI PUSH1 0x1 DUP4 ADD DUP1 PUSH0 SSTORE DUP4 LT ISZERO PUSH2 0x198 JUMPI PUSH0 DUP1 MSTORE PUSH32 0x290DECD9548B62A8D60345A988386FC84BA6BC95484008F6362F93160EF3E563 SWAP1 SWAP3 ADD DUP1 SLOAD PUSH1 0x1 PUSH1 0x1 PUSH1 0xA0 SHL SUB NOT AND SWAP1 SWAP3 OR SWAP1 SWAP2 SSTORE PUSH1 0x1 ADD PUSH2 0xCC JUMP JUMPDEST PUSH4 0x4E487B71 PUSH1 0xE0 SHL PUSH0 MSTORE PUSH1 0x32 PUSH1 0x4 MSTORE PUSH1 0x24 PUSH0 REVERT JUMPDEST PUSH4 0x4E487B71 PUSH1 0xE0 SHL PUSH0 MSTORE PUSH1 0x41 PUSH1 0x4 MSTORE PUSH1 0x24 PUSH0 REVERT JUMPDEST POP PUSH4 0xF9315A77 PUSH1 0xE0 SHL PUSH0 MSTORE PUSH1 0x4 MSTORE PUSH1 0x24 PUSH0 REVERT JUMPDEST PUSH4 0xE6C4247B PUSH1 0xE0 SHL PUSH0 MSTORE PUSH1 0x4 PUSH0 REVERT JUMPDEST PUSH4 0xAABD5A09 PUSH1 0xE0 SHL PUSH0 MSTORE PUSH1 0x4 PUSH0 REVERT JUMPDEST POP DUP2 DUP4 GT ISZERO PUSH2 0xC5 JUMP JUMPDEST PUSH3 0xA6281 PUSH1 0xE5 SHL PUSH0 MSTORE PUSH1 0x4 PUSH0 REVERT JUMPDEST DUP3 MLOAD PUSH1 0x1 PUSH1 0x1 PUSH1 0xA0 SHL SUB DUP2 AND DUP2 SUB PUSH2 0x229 JUMPI DUP2 MSTORE PUSH1 0x20 SWAP3 DUP4 ADD SWAP3 ADD PUSH2 0x7F JUMP JUMPDEST PUSH0 DUP1 REVERT JUMPDEST PUSH1 0x40 MLOAD SWAP2 SWAP1 PUSH1 0x1F ADD PUSH1 0x1F NOT AND DUP3 ADD PUSH1 0x1 PUSH1 0x1 PUSH1 0x40 SHL SUB DUP2 GT DUP4 DUP3 LT OR PUSH2 0x1AC JUMPI PUSH1 0x40 MSTORE JUMP INVALID PUSH1 0x80 PUSH1 0x40 MSTORE PUSH1 0x4 CALLDATASIZE LT ISZERO PUSH2 0x46 JUMPI JUMPDEST CALLDATASIZE ISZERO PUSH2 0x18 JUMPI PUSH0 DUP1 REVERT JUMPDEST PUSH1 0x40 MLOAD CALLVALUE DUP2 MSTORE PUSH32 0xE1FFFCC4923D04B559F4D29A8BFC6CDA04EB5B0D3C460751C2402C5C5CC9109C PUSH1 0x20 CALLER SWAP3 LOG2 STOP JUMPDEST PUSH0 CALLDATALOAD PUSH1 0xE0 SHR DUP1 PUSH4 0x8AFF933 EQ PUSH2 0xD1A JUMPI DUP1 PUSH4 0x2079FB9A EQ PUSH2 0xCD9 JUMPI DUP1 PUSH4 0x20C5429B EQ PUSH2 0xC30 JUMPI DUP1 PUSH4 0x40E58EE5 EQ PUSH2 0xB83 JUMPI DUP1 PUSH4 0x42CDE4E8 EQ PUSH2 0xB66 JUMPI DUP1 PUSH4 0x7DF73E27 EQ PUSH2 0xB29 JUMPI DUP1 PUSH4 0x9ACE38C2 EQ PUSH2 0xA8F JUMPI DUP1 PUSH4 0xBA0179B5 EQ PUSH2 0x9CD JUMPI DUP1 PUSH4 0xEAA89228 EQ PUSH2 0x58B JUMPI PUSH4 0xFE0D94C1 SUB PUSH2 0xE JUMPI CALLVALUE PUSH2 0x587 JUMPI PUSH1 0x20 CALLDATASIZE PUSH1 0x3 NOT ADD SLT PUSH2 0x587 JUMPI PUSH1 0x4 CALLDATALOAD PUSH1 0x2 PUSH32 0x9B779B17422D0DF92223018B32B4D1FA46E071723D6817E2486D003BECC55F00 SLOAD EQ PUSH2 0x578 JUMPI PUSH1 0x2 PUSH32 0x9B779B17422D0DF92223018B32B4D1FA46E071723D6817E2486D003BECC55F00 SSTORE PUSH1 0x3 SLOAD DUP2 LT ISZERO PUSH2 0x569 JUMPI PUSH2 0x12C DUP2 PUSH2 0xDB9 JUMP JUMPDEST POP PUSH1 0x3 DUP2 ADD PUSH1 0xFF DUP2 SLOAD PUSH1 0x8 SHR AND PUSH1 0x4 DUP2 LT ISZERO PUSH2 0x4DF JUMPI PUSH1 0x1 SUB PUSH2 0x55A JUMPI PUSH0 DUP1 SLOAD DUP2 JUMPDEST DUP2 DUP2 LT PUSH2 0x502 JUMPI POP POP PUSH1 0x4 SLOAD GT PUSH2 0x4F3 JUMPI DUP1 SLOAD PUSH2 0xFF00 NOT DUP2 AND PUSH2 0x200 OR SWAP1 SWAP2 SSTORE PUSH1 0xFF AND PUSH1 0x5 DUP2 LT ISZERO PUSH2 0x4DF JUMPI DUP1 PUSH2 0x273 JUMPI POP SELFBALANCE SWAP1 PUSH1 0x2 DUP2 ADD SLOAD DUP1 SWAP3 LT PUSH2 0x264 JUMPI SLOAD PUSH0 SWAP2 DUP3 SWAP2 DUP3 SWAP2 DUP3 SWAP2 PUSH1 0x1 PUSH1 0x1 PUSH1 0xA0 SHL SUB AND GAS CALL RETURNDATASIZE ISZERO PUSH2 0x25F JUMPI RETURNDATASIZE PUSH8 0xFFFFFFFFFFFFFFFF DUP2 GT PUSH2 0x24B JUMPI PUSH1 0x40 MLOAD SWAP1 PUSH1 0x1F DUP2 ADD PUSH1 0x1F NOT SWAP1 DUP2 AND PUSH1 0x3F ADD AND DUP3 ADD PUSH8 0xFFFFFFFFFFFFFFFF DUP2 GT DUP4 DUP3 LT OR PUSH2 0x24B JUMPI PUSH1 0x40 MSTORE DUP2 MSTORE PUSH0 PUSH1 0x20 RETURNDATASIZE SWAP3 ADD RETURNDATACOPY JUMPDEST ISZERO PUSH2 0x23C JUMPI JUMPDEST PUSH32 0xBCF6A68A2F901BE4A23A41B53ACD7697893A7E34DEF4E28ACBA584DA75283B67 PUSH0 DUP1 LOG2 PUSH1 0x1 PUSH32 0x9B779B17422D0DF92223018B32B4D1FA46E071723D6817E2486D003BECC55F00 SSTORE STOP JUMPDEST PUSH4 0x2B3F6D11 PUSH1 0xE2 SHL PUSH0 MSTORE PUSH1 0x4 PUSH0 REVERT JUMPDEST PUSH4 0x4E487B71 PUSH1 0xE0 SHL PUSH0 MSTORE PUSH1 0x41 PUSH1 0x4 MSTORE PUSH1 0x24 PUSH0 REVERT JUMPDEST PUSH2 0x1EC JUMP JUMPDEST PUSH4 0x356680B7 PUSH1 0xE0 SHL PUSH0 MSTORE PUSH1 0x4 PUSH0 REVERT JUMPDEST PUSH1 0x1 DUP2 SUB PUSH2 0x30B JUMPI POP PUSH1 0x1 DUP2 ADD SLOAD DUP2 SLOAD PUSH1 0x2 SWAP1 SWAP3 ADD SLOAD PUSH1 0x40 MLOAD PUSH4 0xA9059CBB PUSH1 0xE0 SHL PUSH0 SWAP1 DUP2 MSTORE PUSH1 0x1 PUSH1 0x1 PUSH1 0xA0 SHL SUB SWAP5 DUP6 AND PUSH1 0x4 MSTORE PUSH1 0x24 SWAP3 SWAP1 SWAP3 MSTORE SWAP2 SWAP1 SWAP3 AND SWAP2 PUSH1 0x20 SWAP1 PUSH1 0x44 DUP2 DUP1 DUP7 GAS CALL SWAP1 PUSH1 0x1 PUSH0 MLOAD EQ DUP3 AND ISZERO PUSH2 0x2EA JUMPI JUMPDEST PUSH1 0x40 MSTORE ISZERO PUSH2 0x2D8 JUMPI POP JUMPDEST PUSH2 0x1F2 JUMP JUMPDEST PUSH4 0x5274AFE7 PUSH1 0xE0 SHL PUSH0 MSTORE PUSH1 0x4 MSTORE PUSH1 0x24 PUSH0 REVERT JUMPDEST SWAP1 PUSH1 0x1 DUP2 ISZERO AND PUSH2 0x302 JUMPI DUP3 EXTCODESIZE ISZERO ISZERO RETURNDATASIZE ISZERO AND AND SWAP1 PUSH2 0x2C9 JUMP JUMPDEST POP RETURNDATASIZE PUSH0 DUP3 RETURNDATACOPY RETURNDATASIZE SWAP1 REVERT JUMPDEST PUSH1 0x2 DUP2 SUB PUSH2 0x383 JUMPI POP DUP1 SLOAD PUSH1 0x1 PUSH1 0x1 PUSH1 0xA0 SHL SUB SWAP1 DUP2 AND PUSH0 SWAP1 DUP2 MSTORE PUSH1 0x1 PUSH1 0x20 DUP2 SWAP1 MSTORE PUSH1 0x40 DUP3 KECCAK256 DUP1 SLOAD PUSH1 0xFF NOT AND SWAP1 SWAP2 OR SWAP1 SSTORE SWAP2 SLOAD SWAP2 SLOAD SWAP2 AND PUSH1 0x1 PUSH1 0x40 SHL DUP3 LT ISZERO PUSH2 0x24B JUMPI PUSH2 0x35F DUP3 PUSH1 0x1 PUSH2 0x2D3 SWAP5 ADD PUSH0 SSTORE PUSH2 0xD8F JUMP JUMPDEST DUP2 SLOAD PUSH1 0x1 PUSH1 0x1 PUSH1 0xA0 SHL SUB SWAP4 DUP5 AND PUSH1 0x3 SWAP3 SWAP1 SWAP3 SHL SWAP2 DUP3 SHL SWAP4 SWAP1 SWAP2 SHL NOT AND SWAP2 SWAP1 SWAP2 OR SWAP1 SSTORE JUMP JUMPDEST PUSH1 0x3 DUP2 SUB PUSH2 0x49A JUMPI POP SLOAD PUSH0 SLOAD SWAP1 PUSH0 NOT DUP3 ADD SWAP1 DUP3 DUP3 GT SWAP1 PUSH1 0x1 PUSH1 0x1 PUSH1 0xA0 SHL SUB AND DUP2 PUSH2 0x477 JUMPI PUSH1 0x4 SLOAD DUP4 LT PUSH2 0x48B JUMPI PUSH0 DUP2 DUP2 MSTORE PUSH1 0x1 PUSH1 0x20 MSTORE PUSH1 0x40 DUP2 KECCAK256 DUP1 SLOAD PUSH1 0xFF NOT AND SWAP1 SSTORE JUMPDEST DUP5 DUP2 LT PUSH2 0x3D8 JUMPI JUMPDEST POP POP POP POP POP PUSH2 0x1F2 JUMP JUMPDEST DUP2 PUSH2 0x3E2 DUP3 PUSH2 0xD8F JUMP JUMPDEST SWAP1 SLOAD PUSH1 0x3 SWAP2 SWAP1 SWAP2 SHL SHR PUSH1 0x1 PUSH1 0x1 PUSH1 0xA0 SHL SUB AND EQ PUSH2 0x401 JUMPI PUSH1 0x1 ADD PUSH2 0x3C6 JUMP JUMPDEST SWAP3 SWAP4 POP POP PUSH2 0x477 JUMPI PUSH2 0x35F PUSH2 0x418 PUSH2 0x430 SWAP4 PUSH2 0xD8F JUMP JUMPDEST SWAP1 SLOAD PUSH1 0x3 SWAP2 SWAP1 SWAP2 SHL SHR PUSH1 0x1 PUSH1 0x1 PUSH1 0xA0 SHL SUB AND SWAP2 PUSH2 0xD8F JUMP JUMPDEST PUSH0 SLOAD DUP1 ISZERO PUSH2 0x463 JUMPI PUSH0 NOT ADD PUSH2 0x444 DUP2 PUSH2 0xD8F JUMP JUMPDEST DUP2 SLOAD SWAP1 PUSH1 0x1 DUP1 PUSH1 0xA0 SHL SUB SWAP1 PUSH1 0x3 SHL SHL NOT AND SWAP1 SSTORE PUSH0 SSTORE PUSH0 DUP1 DUP1 DUP1 DUP1 PUSH2 0x3CE JUMP JUMPDEST PUSH4 0x4E487B71 PUSH1 0xE0 SHL PUSH0 MSTORE PUSH1 0x31 PUSH1 0x4 MSTORE PUSH1 0x24 PUSH0 REVERT JUMPDEST PUSH4 0x4E487B71 PUSH1 0xE0 SHL PUSH0 MSTORE PUSH1 0x11 PUSH1 0x4 MSTORE PUSH1 0x24 PUSH0 REVERT JUMPDEST PUSH4 0xBB10921 PUSH1 0xE2 SHL PUSH0 MSTORE PUSH1 0x4 PUSH0 REVERT JUMPDEST PUSH1 0x4 EQ PUSH2 0x4A8 JUMPI JUMPDEST POP PUSH2 0x1F2 JUMP JUMPDEST PUSH1 0x2 ADD SLOAD PUSH1 0x2 DUP2 LT ISZERO DUP1 PUSH2 0x4D4 JUMPI JUMPDEST ISZERO PUSH2 0x4C5 JUMPI PUSH1 0x4 SSTORE PUSH0 PUSH2 0x4A2 JUMP JUMPDEST PUSH4 0xAABD5A09 PUSH1 0xE0 SHL PUSH0 MSTORE PUSH1 0x4 PUSH0 REVERT JUMPDEST POP PUSH0 SLOAD DUP2 GT ISZERO PUSH2 0x4B7 JUMP JUMPDEST PUSH4 0x4E487B71 PUSH1 0xE0 SHL PUSH0 MSTORE PUSH1 0x21 PUSH1 0x4 MSTORE PUSH1 0x24 PUSH0 REVERT JUMPDEST PUSH4 0x59FA4A93 PUSH1 0xE0 SHL PUSH0 MSTORE PUSH1 0x4 PUSH0 REVERT JUMPDEST DUP6 PUSH0 MSTORE PUSH1 0x2 PUSH1 0x20 MSTORE PUSH1 0x40 PUSH0 KECCAK256 PUSH2 0x517 DUP3 PUSH2 0xD8F JUMP JUMPDEST SWAP1 SLOAD PUSH1 0x3 SWAP2 SWAP1 SWAP2 SHL SHR PUSH1 0x1 PUSH1 0x1 PUSH1 0xA0 SHL SUB AND PUSH0 SWAP1 DUP2 MSTORE PUSH1 0x20 SWAP2 SWAP1 SWAP2 MSTORE PUSH1 0x40 SWAP1 KECCAK256 SLOAD PUSH1 0xFF AND PUSH2 0x548 JUMPI JUMPDEST PUSH1 0x1 ADD PUSH2 0x14E JUMP JUMPDEST SWAP2 PUSH0 NOT DUP2 EQ PUSH2 0x477 JUMPI PUSH1 0x1 ADD SWAP2 PUSH2 0x540 JUMP JUMPDEST PUSH4 0xF19FAF6F PUSH1 0xE0 SHL PUSH0 MSTORE PUSH1 0x4 PUSH0 REVERT JUMPDEST PUSH4 0x55480C7 PUSH1 0xE4 SHL PUSH0 MSTORE PUSH1 0x4 PUSH0 REVERT JUMPDEST PUSH4 0x3EE5AEB5 PUSH1 0xE0 SHL PUSH0 MSTORE PUSH1 0x4 PUSH0 REVERT JUMPDEST PUSH0 DUP1 REVERT JUMPDEST CALLVALUE PUSH2 0x587 JUMPI PUSH1 0x80 CALLDATASIZE PUSH1 0x3 NOT ADD SLT PUSH2 0x587 JUMPI PUSH2 0x5A4 PUSH2 0xD79 JUMP JUMPDEST PUSH2 0x5AC PUSH2 0xD63 JUMP JUMPDEST PUSH1 0x44 CALLDATALOAD PUSH1 0x64 CALLDATALOAD PUSH1 0xFF DUP2 AND DUP1 SWAP2 SUB PUSH2 0x587 JUMPI CALLER PUSH0 MSTORE PUSH1 0x1 PUSH1 0x20 MSTORE PUSH1 0xFF PUSH1 0x40 PUSH0 KECCAK256 SLOAD AND ISZERO PUSH2 0x810 JUMPI PUSH1 0x4 DUP2 GT PUSH2 0x9BE JUMPI PUSH1 0x5 DUP2 LT ISZERO PUSH2 0x4DF JUMPI PUSH0 SWAP1 DUP1 PUSH2 0x863 JUMPI PUSH1 0x1 PUSH1 0x1 PUSH1 0xA0 SHL SUB DUP6 AND ISZERO PUSH2 0x854 JUMPI PUSH1 0x1 PUSH1 0x1 PUSH1 0xA0 SHL SUB DUP5 AND PUSH2 0x845 JUMPI DUP3 ISZERO PUSH2 0x836 JUMPI JUMPDEST PUSH1 0x3 SLOAD SWAP4 PUSH1 0x40 MLOAD SWAP6 PUSH1 0xC0 DUP8 ADD DUP8 DUP2 LT PUSH8 0xFFFFFFFFFFFFFFFF DUP3 GT OR PUSH2 0x24B JUMPI PUSH1 0x40 MSTORE PUSH1 0x1 DUP1 PUSH1 0xA0 SHL SUB AND SWAP6 DUP7 DUP2 MSTORE PUSH1 0x20 DUP2 ADD SWAP2 PUSH1 0x1 DUP1 PUSH1 0xA0 SHL SUB AND DUP3 MSTORE PUSH1 0x40 DUP2 ADD SWAP3 DUP6 DUP5 MSTORE PUSH1 0x60 DUP3 ADD SWAP5 PUSH2 0x4DF JUMPI DUP5 MSTORE PUSH1 0x80 DUP2 ADD SWAP2 PUSH1 0x1 DUP4 MSTORE PUSH1 0xA0 DUP3 ADD SWAP4 CALLER DUP6 MSTORE PUSH1 0x1 PUSH1 0x40 SHL DUP9 LT ISZERO PUSH2 0x24B JUMPI PUSH1 0x1 DUP9 ADD PUSH1 0x3 SSTORE PUSH2 0x68B DUP9 PUSH2 0xDB9 JUMP JUMPDEST SWAP3 SWAP1 SWAP3 PUSH2 0x823 JUMPI SWAP3 MLOAD DUP3 SLOAD PUSH1 0x1 PUSH1 0x1 PUSH1 0xA0 SHL SUB NOT SWAP1 DUP2 AND PUSH1 0x1 PUSH1 0x1 PUSH1 0xA0 SHL SUB SWAP3 DUP4 AND OR DUP5 SSTORE SWAP4 MLOAD PUSH1 0x1 DUP5 ADD DUP1 SLOAD SWAP1 SWAP6 AND SWAP2 AND OR SWAP1 SWAP3 SSTORE SWAP1 MLOAD PUSH1 0x2 DUP3 ADD SSTORE SWAP3 MLOAD PUSH1 0x3 SWAP4 SWAP1 SWAP4 ADD SWAP3 PUSH1 0x5 DUP2 LT ISZERO PUSH2 0x4DF JUMPI PUSH1 0xFF DUP1 NOT DUP6 SLOAD AND SWAP2 AND OR DUP4 SSTORE MLOAD PUSH1 0x4 DUP2 LT ISZERO PUSH2 0x4DF JUMPI DUP3 SLOAD SWAP2 MLOAD PUSH2 0x100 PUSH1 0x1 PUSH1 0xB0 SHL SUB NOT SWAP1 SWAP3 AND PUSH1 0x8 SWAP2 SWAP1 SWAP2 SHL PUSH2 0xFF00 AND OR PUSH1 0x10 SWAP2 SWAP1 SWAP2 SHL PUSH3 0x10000 PUSH1 0x1 PUSH1 0xB0 SHL SUB AND OR SWAP1 SSTORE CALLER PUSH0 SWAP1 DUP2 MSTORE PUSH1 0x1 PUSH1 0x20 MSTORE PUSH1 0x40 SWAP1 KECCAK256 SLOAD PUSH1 0xFF AND ISZERO PUSH2 0x810 JUMPI PUSH1 0x3 SLOAD DUP3 LT ISZERO PUSH2 0x569 JUMPI PUSH1 0xFF PUSH1 0x3 PUSH2 0x74E DUP5 PUSH2 0xDB9 JUMP JUMPDEST POP ADD SLOAD PUSH1 0x8 SHR AND PUSH1 0x4 DUP2 LT ISZERO PUSH2 0x4DF JUMPI PUSH1 0x1 SUB PUSH2 0x55A JUMPI PUSH0 DUP3 DUP2 MSTORE PUSH1 0x2 PUSH1 0x20 SWAP1 DUP2 MSTORE PUSH1 0x40 DUP1 DUP4 KECCAK256 CALLER DUP5 MSTORE SWAP1 SWAP2 MSTORE SWAP1 KECCAK256 SLOAD PUSH1 0xFF AND PUSH2 0x801 JUMPI PUSH0 DUP3 DUP2 MSTORE PUSH1 0x2 PUSH1 0x20 SWAP1 DUP2 MSTORE PUSH1 0x40 DUP1 DUP4 KECCAK256 CALLER DUP1 DUP6 MSTORE SWAP3 MSTORE DUP1 DUP4 KECCAK256 DUP1 SLOAD PUSH1 0xFF NOT AND PUSH1 0x1 OR SWAP1 SSTORE MLOAD SWAP5 SWAP2 DUP5 SWAP1 PUSH32 0x6F220D98C15DBD07FDC24781B682EA34F92411FC61B83C761DD927AFBE02D3FD SWAP1 DUP1 LOG3 DUP4 MSTORE PUSH1 0x20 DUP4 ADD MSTORE PUSH32 0xEE0DC734EB5E239D4127A856586D5C92CD64F0CF80E1706CD69262B6ACFABB3B PUSH1 0x40 CALLER SWAP4 LOG3 STOP JUMPDEST PUSH4 0x5F8A9C0B PUSH1 0xE0 SHL PUSH0 MSTORE PUSH1 0x4 PUSH0 REVERT JUMPDEST PUSH4 0x2A6EDB2B PUSH1 0xE0 SHL PUSH0 MSTORE CALLER PUSH1 0x4 MSTORE PUSH1 0x24 PUSH0 REVERT JUMPDEST PUSH4 0x4E487B71 PUSH1 0xE0 SHL PUSH0 MSTORE PUSH0 PUSH1 0x4 MSTORE PUSH1 0x24 PUSH0 REVERT JUMPDEST PUSH4 0x13064EB1 PUSH1 0xE1 SHL PUSH0 MSTORE PUSH1 0x4 PUSH0 REVERT JUMPDEST PUSH4 0x9A5BAB7B PUSH1 0xE0 SHL PUSH0 MSTORE PUSH1 0x4 PUSH0 REVERT JUMPDEST PUSH4 0xE6C4247B PUSH1 0xE0 SHL PUSH0 MSTORE PUSH1 0x4 PUSH0 REVERT JUMPDEST PUSH0 SWAP2 POP PUSH1 0x1 DUP2 SUB PUSH2 0x8A7 JUMPI PUSH1 0x1 PUSH1 0x1 PUSH1 0xA0 SHL SUB DUP6 AND ISZERO PUSH2 0x854 JUMPI PUSH1 0x1 PUSH1 0x1 PUSH1 0xA0 SHL SUB DUP5 AND ISZERO PUSH2 0x898 JUMPI DUP3 ISZERO PUSH2 0x836 JUMPI JUMPDEST PUSH2 0x60E JUMP JUMPDEST PUSH4 0x78A6B4A5 PUSH1 0xE1 SHL PUSH0 MSTORE PUSH1 0x4 PUSH0 REVERT JUMPDEST PUSH0 SWAP2 POP PUSH1 0x2 DUP2 SUB PUSH2 0x916 JUMPI PUSH1 0x1 PUSH1 0x1 PUSH1 0xA0 SHL SUB DUP6 AND DUP1 ISZERO PUSH2 0x854 JUMPI DUP1 PUSH0 MSTORE PUSH1 0x1 PUSH1 0x20 MSTORE PUSH1 0xFF PUSH1 0x40 PUSH0 KECCAK256 SLOAD AND PUSH2 0x904 JUMPI POP PUSH1 0x1 PUSH1 0x1 PUSH1 0xA0 SHL SUB DUP5 AND ISZERO DUP1 PUSH2 0x8FC JUMPI JUMPDEST PUSH2 0x60E JUMPI JUMPDEST PUSH4 0x515065A5 PUSH1 0xE1 SHL PUSH0 MSTORE PUSH1 0x4 PUSH0 REVERT JUMPDEST POP DUP3 ISZERO PUSH2 0x8E8 JUMP JUMPDEST PUSH4 0xF9315A77 PUSH1 0xE0 SHL PUSH0 MSTORE PUSH1 0x4 MSTORE PUSH1 0x24 PUSH0 REVERT JUMPDEST PUSH0 SWAP2 POP PUSH1 0x3 DUP2 SUB PUSH2 0x977 JUMPI PUSH1 0x1 PUSH1 0x1 PUSH1 0xA0 SHL SUB DUP6 AND PUSH0 DUP2 DUP2 MSTORE PUSH1 0x1 PUSH1 0x20 MSTORE PUSH1 0x40 SWAP1 KECCAK256 SLOAD PUSH1 0xFF AND ISZERO PUSH2 0x965 JUMPI POP PUSH1 0x1 PUSH1 0x1 PUSH1 0xA0 SHL SUB DUP5 AND ISZERO DUP1 PUSH2 0x95D JUMPI JUMPDEST ISZERO PUSH2 0x8ED JUMPI PUSH2 0x60E JUMP JUMPDEST POP DUP3 ISZERO PUSH2 0x953 JUMP JUMPDEST PUSH4 0x2A6EDB2B PUSH1 0xE0 SHL PUSH0 MSTORE PUSH1 0x4 MSTORE PUSH1 0x24 PUSH0 REVERT JUMPDEST PUSH0 SWAP2 POP PUSH1 0x3 NOT DUP2 ADD PUSH2 0x893 JUMPI DUP3 ISZERO PUSH2 0x4C5 JUMPI PUSH1 0x1 PUSH1 0x1 PUSH1 0xA0 SHL SUB DUP6 AND ISZERO DUP1 PUSH2 0x9AD JUMPI JUMPDEST PUSH2 0x893 JUMPI PUSH4 0x3F7D411 PUSH1 0xE1 SHL PUSH0 MSTORE PUSH1 0x4 PUSH0 REVERT JUMPDEST POP PUSH1 0x1 PUSH1 0x1 PUSH1 0xA0 SHL SUB DUP5 AND ISZERO PUSH2 0x99A JUMP JUMPDEST PUSH4 0x7513B903 PUSH1 0xE0 SHL PUSH0 MSTORE PUSH1 0x4 PUSH0 REVERT JUMPDEST CALLVALUE PUSH2 0x587 JUMPI PUSH1 0x20 CALLDATASIZE PUSH1 0x3 NOT ADD SLT PUSH2 0x587 JUMPI PUSH1 0x4 CALLDATALOAD CALLER PUSH0 MSTORE PUSH1 0x1 PUSH1 0x20 MSTORE PUSH1 0xFF PUSH1 0x40 PUSH0 KECCAK256 SLOAD AND ISZERO PUSH2 0x810 JUMPI PUSH1 0x3 SLOAD DUP2 LT ISZERO PUSH2 0x569 JUMPI PUSH1 0xFF PUSH1 0x3 PUSH2 0xA0D DUP4 PUSH2 0xDB9 JUMP JUMPDEST POP ADD SLOAD PUSH1 0x8 SHR AND PUSH1 0x4 DUP2 LT ISZERO PUSH2 0x4DF JUMPI PUSH1 0x1 SUB PUSH2 0x55A JUMPI PUSH0 DUP2 DUP2 MSTORE PUSH1 0x2 PUSH1 0x20 SWAP1 DUP2 MSTORE PUSH1 0x40 DUP1 DUP4 KECCAK256 CALLER DUP5 MSTORE SWAP1 SWAP2 MSTORE SWAP1 KECCAK256 SLOAD PUSH1 0xFF AND PUSH2 0x801 JUMPI PUSH0 DUP2 DUP2 MSTORE PUSH1 0x2 PUSH1 0x20 SWAP1 DUP2 MSTORE PUSH1 0x40 DUP1 DUP4 KECCAK256 CALLER DUP1 DUP6 MSTORE SWAP3 MSTORE DUP3 KECCAK256 DUP1 SLOAD PUSH1 0xFF NOT AND PUSH1 0x1 OR SWAP1 SSTORE SWAP2 SWAP1 PUSH32 0x6F220D98C15DBD07FDC24781B682EA34F92411FC61B83C761DD927AFBE02D3FD SWAP1 DUP1 LOG3 STOP JUMPDEST CALLVALUE PUSH2 0x587 JUMPI PUSH1 0x20 CALLDATASIZE PUSH1 0x3 NOT ADD SLT PUSH2 0x587 JUMPI PUSH1 0x4 CALLDATALOAD PUSH1 0x3 SLOAD DUP2 LT ISZERO PUSH2 0x587 JUMPI PUSH2 0xAB6 SWAP1 PUSH2 0xDB9 JUMP JUMPDEST POP PUSH1 0x1 DUP1 PUSH1 0xA0 SHL SUB DUP2 SLOAD AND PUSH1 0x1 DUP1 PUSH1 0xA0 SHL SUB PUSH1 0x1 DUP4 ADD SLOAD AND SWAP2 PUSH1 0x3 PUSH1 0x2 DUP3 ADD SLOAD SWAP2 ADD SLOAD SWAP1 PUSH1 0xFF DUP3 AND SWAP1 PUSH1 0xFF DUP4 PUSH1 0x8 SHR AND SWAP5 PUSH1 0x40 MLOAD SWAP5 DUP6 MSTORE PUSH1 0x20 DUP6 ADD MSTORE PUSH1 0x40 DUP5 ADD MSTORE PUSH1 0x5 DUP2 LT ISZERO PUSH2 0x4DF JUMPI PUSH1 0x60 DUP4 ADD MSTORE PUSH1 0x4 DUP4 LT ISZERO PUSH2 0x4DF JUMPI PUSH1 0xC0 SWAP3 PUSH1 0x80 DUP4 ADD MSTORE PUSH1 0x1 DUP1 PUSH1 0xA0 SHL SUB SWAP1 PUSH1 0x10 SHR AND PUSH1 0xA0 DUP3 ADD MSTORE RETURN JUMPDEST CALLVALUE PUSH2 0x587 JUMPI PUSH1 0x20 CALLDATASIZE PUSH1 0x3 NOT ADD SLT PUSH2 0x587 JUMPI PUSH1 0x1 PUSH1 0x1 PUSH1 0xA0 SHL SUB PUSH2 0xB4A PUSH2 0xD79 JUMP JUMPDEST AND PUSH0 MSTORE PUSH1 0x1 PUSH1 0x20 MSTORE PUSH1 0x20 PUSH1 0xFF PUSH1 0x40 PUSH0 KECCAK256 SLOAD AND PUSH1 0x40 MLOAD SWAP1 ISZERO ISZERO DUP2 MSTORE RETURN JUMPDEST CALLVALUE PUSH2 0x587 JUMPI PUSH0 CALLDATASIZE PUSH1 0x3 NOT ADD SLT PUSH2 0x587 JUMPI PUSH1 0x20 PUSH1 0x4 SLOAD PUSH1 0x40 MLOAD SWAP1 DUP2 MSTORE RETURN JUMPDEST CALLVALUE PUSH2 0x587 JUMPI PUSH1 0x20 CALLDATASIZE PUSH1 0x3 NOT ADD SLT PUSH2 0x587 JUMPI PUSH1 0x4 CALLDATALOAD CALLER PUSH0 MSTORE PUSH1 0x1 PUSH1 0x20 MSTORE PUSH1 0xFF PUSH1 0x40 PUSH0 KECCAK256 SLOAD AND ISZERO PUSH2 0x810 JUMPI PUSH1 0x3 SLOAD DUP2 LT ISZERO PUSH2 0x569 JUMPI PUSH1 0x3 PUSH2 0xBC1 DUP3 PUSH2 0xDB9 JUMP JUMPDEST POP ADD DUP1 SLOAD PUSH1 0xFF DUP2 PUSH1 0x8 SHR AND PUSH1 0x4 DUP2 LT ISZERO PUSH2 0x4DF JUMPI PUSH1 0x1 SUB PUSH2 0x55A JUMPI PUSH1 0x10 SHR PUSH1 0x1 PUSH1 0x1 PUSH1 0xA0 SHL SUB AND CALLER SUB PUSH2 0xC21 JUMPI DUP1 SLOAD PUSH2 0xFF00 NOT AND PUSH2 0x300 OR SWAP1 SSTORE PUSH32 0xC41D93B8BFBF9FD7CF5BFE271FD649AB6A6FEC0EA101C23B82A2A28ECA2533A9 PUSH0 DUP1 LOG2 STOP JUMPDEST PUSH4 0x7D1B73B9 PUSH1 0xE0 SHL PUSH0 MSTORE PUSH1 0x4 PUSH0 REVERT JUMPDEST CALLVALUE PUSH2 0x587 JUMPI PUSH1 0x20 CALLDATASIZE PUSH1 0x3 NOT ADD SLT PUSH2 0x587 JUMPI PUSH1 0x4 CALLDATALOAD CALLER PUSH0 MSTORE PUSH1 0x1 PUSH1 0x20 MSTORE PUSH1 0xFF PUSH1 0x40 PUSH0 KECCAK256 SLOAD AND ISZERO PUSH2 0x810 JUMPI PUSH1 0x3 SLOAD DUP2 LT ISZERO PUSH2 0x569 JUMPI PUSH1 0xFF PUSH1 0x3 PUSH2 0xC70 DUP4 PUSH2 0xDB9 JUMP JUMPDEST POP ADD SLOAD PUSH1 0x8 SHR AND PUSH1 0x4 DUP2 LT ISZERO PUSH2 0x4DF JUMPI PUSH1 0x1 SUB PUSH2 0x55A JUMPI PUSH0 DUP2 DUP2 MSTORE PUSH1 0x2 PUSH1 0x20 SWAP1 DUP2 MSTORE PUSH1 0x40 DUP1 DUP4 KECCAK256 CALLER DUP5 MSTORE SWAP1 SWAP2 MSTORE SWAP1 KECCAK256 SLOAD PUSH1 0xFF AND ISZERO PUSH2 0xCCA JUMPI PUSH0 SWAP1 DUP2 MSTORE PUSH1 0x2 PUSH1 0x20 SWAP1 DUP2 MSTORE PUSH1 0x40 DUP1 DUP4 KECCAK256 CALLER DUP5 MSTORE SWAP1 SWAP2 MSTORE SWAP1 KECCAK256 DUP1 SLOAD PUSH1 0xFF NOT AND SWAP1 SSTORE STOP JUMPDEST PUSH4 0x7238834D PUSH1 0xE1 SHL PUSH0 MSTORE PUSH1 0x4 PUSH0 REVERT JUMPDEST CALLVALUE PUSH2 0x587 JUMPI PUSH1 0x20 CALLDATASIZE PUSH1 0x3 NOT ADD SLT PUSH2 0x587 JUMPI PUSH1 0x4 CALLDATALOAD PUSH0 SLOAD DUP2 LT ISZERO PUSH2 0x587 JUMPI PUSH2 0xD01 PUSH1 0x20 SWAP2 PUSH2 0xD8F JUMP JUMPDEST SWAP1 SLOAD PUSH1 0x40 MLOAD PUSH1 0x3 SWAP3 SWAP1 SWAP3 SHL SHR PUSH1 0x1 PUSH1 0x1 PUSH1 0xA0 SHL SUB AND DUP2 MSTORE RETURN JUMPDEST CALLVALUE PUSH2 0x587 JUMPI PUSH1 0x40 CALLDATASIZE PUSH1 0x3 NOT ADD SLT PUSH2 0x587 JUMPI PUSH2 0xD33 PUSH2 0xD63 JUMP JUMPDEST PUSH1 0x4 CALLDATALOAD PUSH0 MSTORE PUSH1 0x2 PUSH1 0x20 MSTORE PUSH1 0x40 PUSH0 KECCAK256 SWAP1 PUSH1 0x1 DUP1 PUSH1 0xA0 SHL SUB AND PUSH0 MSTORE PUSH1 0x20 MSTORE PUSH1 0x20 PUSH1 0xFF PUSH1 0x40 PUSH0 KECCAK256 SLOAD AND PUSH1 0x40 MLOAD SWAP1 ISZERO ISZERO DUP2 MSTORE RETURN JUMPDEST PUSH1 0x24 CALLDATALOAD SWAP1 PUSH1 0x1 PUSH1 0x1 PUSH1 0xA0 SHL SUB DUP3 AND DUP3 SUB PUSH2 0x587 JUMPI JUMP JUMPDEST PUSH1 0x4 CALLDATALOAD SWAP1 PUSH1 0x1 PUSH1 0x1 PUSH1 0xA0 SHL SUB DUP3 AND DUP3 SUB PUSH2 0x587 JUMPI JUMP JUMPDEST PUSH0 SLOAD DUP2 LT ISZERO PUSH2 0xDA5 JUMPI PUSH0 DUP1 MSTORE PUSH1 0x20 PUSH0 KECCAK256 ADD SWAP1 PUSH0 SWAP1 JUMP JUMPDEST PUSH4 0x4E487B71 PUSH1 0xE0 SHL PUSH0 MSTORE PUSH1 0x32 PUSH1 0x4 MSTORE PUSH1 0x24 PUSH0 REVERT JUMPDEST PUSH1 0x3 SLOAD DUP2 LT ISZERO PUSH2 0xDA5 JUMPI PUSH1 0x3 PUSH0 MSTORE PUSH1 0x20 PUSH0 KECCAK256 SWAP1 PUSH1 0x2 SHL ADD SWAP1 PUSH0 SWAP1 JUMP INVALID LOG2 PUSH5 0x6970667358 0x22 SLT KECCAK256 MSIZE PUSH5 0x430C3437E1 SWAP7 PUSH22 0x6279E90058F7A4768602DB6096759EC5DF4AF5D4B6CC DUP4 PUSH5 0x736F6C6343 STOP ADDMOD BYTE STOP CALLER "
        },
        "methodIdentifiers": {
          "cancel(uint256)": "40e58ee5",
          "confirm(uint256)": "ba0179b5",
          "execute(uint256)": "fe0d94c1",
          "hasConfirmed(uint256,address)": "08aff933",
          "isSigner(address)": "7df73e27",
          "revoke(uint256)": "20c5429b",
          "signers(uint256)": "2079fb9a",
          "submit(address,address,uint256,uint8)": "eaa89228",
          "threshold()": "42cde4e8",
          "transactions(uint256)": "9ace38c2"
        }
      }
    }
  }
}